:10000000F8FF002011040000B5350000B5350000F0
:10001000B5350000B5350000B5350000B535000038
:10002000B5350000B5350000B5350000B535000028
:10003000B5350000B5350000B5350000B535000018
:10004000B5350000B5350000B5350000B535000008
:10040000FFFFFFFFFFFFFFFFFFFFFFFFFEFFFFFFFD
:1004100062B606F095FCFEE72DE9F04FA1B08046EC
:1004200017461D46029102AE0020706211AC6FF0BB
:1004300000490AE017F8011B0298C0470290002803
:1004400000F07C82706A401C7062387808B9706A6B
:1004500076E22528EED10020F06030617061B06155
:10046000F061306201E040F0010017F8011F20291F
:10047000F9D023290ED02B2904D02D2906D03029DC
:100480000CD00FE040F0020080B2EEE740F0040034
:1004900080B2EAE740F0080080B2E6E740F01000E2
:1004A00080B2E2E72A290DD129680A1D2A6009686D
:1004B000F162002904D54942F16240F0040080B2A3
:1004C0007F1C11E00021F16209E0F16A494505D085
:1004D00001EB810302EB43013039F1627F1C3A7872
:1004E000A2F130010A29F0D339782E291CBF4FF030
:1004F000FF31B1621CD117F8011F2A2906D12968E2
:100500000A1D2A600968B1627F1C11E00021B162F6
:1005100009E0B16A494505D001EB810302EB4301D3
:100520003039B1627F1C3A78A2F130010A29F0D348
:10053000308639780FF6CC3000F002FE08B117F89B
:10054000010B8DF83A009DF83A00682804D13878FC
:1005500068280AD1622005E06C2804BF38786C282E
:1005600003D171208DF83A007F1C11A8B0603A7851
:100570001046253825D01C3875D0001F022872D9A6
:10058000133800F09C8009386DD0801E00F0378150
:10059000401E00F0DD80401E022864D9001F00F0DC
:1005A000D780401F34D0401E00F08980401E24D0E8
:1005B000C01E0CD0801E00F08280C01E00F07F8024
:1005C00026E1F068411CF160252101552AE12868E7
:1005D000011D296000687060B26A002A03D500F02E
:1005E000BBFD30611EE1002100F0D2FD00281ABFE2
:1005F0007168401AB06A306114E12868011D2960F1
:1006000000680021CDE9000111A870607821F2E0B6
:100610009DF83A00622818D0682806D06A280BD0C6
:100620006C2819D0712807D016E02868011D2960B0
:10063000716A00680180F5E02A68101D2860706A00
:10064000C1171268C2E90001ECE02868011D2960A9
:10065000716A00680170E5E02868011D2960716A0F
:1006600000680160DEE02868C01D20F007002860F7
:10067000034603F108002860D3E90001CDE9000139
:10068000002904D5F068411CF1602D210DE0308E69
:10069000810704D5F068411CF1602B2105E0C007FB
:1006A00004D5F068411CF16020210155F06811A9C2
:1006B00040187060114600A800F0D8F9B2E09DF82B
:1006C0003A306C2B08BF286811D0712B08BF2868FE
:1006D00002D06A2B28680AD1C01D20F007002860CC
:1006E00084460CF108002860DCE9000103E0011DEC
:1006F000296000680021CDE90001682B04BFDDE915
:10070000000180B20BD0622B04BFDDE90001C0B252
:1007100005D0742B18BF7A2B04D1DDE9000100212C
:10072000CDE9000196F8300000075FD5DDE9000152
:10073000002908BF002859D042F02000782855D160
:10074000F06830210155401C411CF16002554DE01C
:100750009DF83A0062280CD0682810D06A281AD078
:100760006C2824D0712816D0742820D07A280CD078
:100770001DE02868011D296090F900001BE0286831
:10078000011D2960B0F9000015E02868011D2960ED
:100790000068002110E02868C01D20F007002860D4
:1007A000034603F108002860D3E9000104E028684B
:1007B000011D29600068C117CDE90001DDE90001D4
:1007C000002904DAF068411CF1602D210DE0308E23
:1007D000810704D5F068411CF1602B2105E0C007BA
:1007E00004D5F068411CF16020210155F06811A981
:1007F00040187060114600A800F0A5F812E0F068FB
:10080000411CF16029680A1D2A600968015509E048
:10081000F068411CF160252101551AB1F068411CB6
:10082000F16002557F1CF06AF168401AB169401A04
:100830003169401AF169401A7169401A316AA0EBB6
:10084000010A96F83000400711D420208DF84000AE
:10085000BAF1010F0BDBD346012310AA00A94046D1
:1008600000F038FC002869D1BBF1010BF4D1F3682A
:1008700011AA00A9404600F02DFC00285ED13020CE
:100880008DF84000D6F818B0BBF1010F0ADB012348
:1008900010AA00A9404600F01DFC00284ED1BBF173
:1008A000010BF4D13369726800A9404600F012FCD4
:1008B000002843D130208DF84000D6F81CB0BBF1A1
:1008C000010F09DB012310AA00A9404600F002FC39
:1008D000A0BBBBF1010BF5D1736930697168421897
:1008E00000A9404600F0F6FB40BB30208DF84000E8
:1008F000D6F820B0BBF1010F09DB012310AA00A933
:10090000404600F0E7FBC8B9BBF1010BF5D196F802
:10091000300040077FF599AD20208DF84000BAF1F6
:10092000010FFFF692AD012310AA00A9404600F086
:10093000D1FB18B9BAF1010AF5D186E54FF0FF30C5
:1009400021B0BDE8F08F2DE9FA4B86B005462F693E
:100950006F2908BF082605D041F02000782814BF71
:100960000A2610263C24D5E9000181468B469DF8D5
:100970001820642A18BF692A05D1002903DAD9F1A1
:1009800000096BEB4B0BBBF1000F08BFB9F1000F77
:100990000CD1286B50B9082E44D195F838000007C7
:1009A00040D53B24302087F83B003BE0A4F1010810
:1009B0004446F017CDE9046048465946DDE9042372
:1009C00000F012FCCDE90201CDE9009BDDE9022334
:1009D000DDE90401A0FB029BDDE90001A0EB0900B9
:1009E0003030C0B23A2803D39DF818105139081896
:1009F00008F80700DDE9029BBBF1000F08BFB9F161
:100A0000000F03D0E868E1198842CFD3082E09D13E
:100A100095F83800000705D5E05D302802D0641E47
:100A20003020E055C4F13C00A861E119E960296B70
:100A3000884207DA081A2862288F4FF6EF710840BB
:100A4000288710E000290ED595F8381001F0140120
:100A5000102908D1696B6A69891A2A6A891A0C1ADD
:100A6000012CA8BF2C6208B0BDE8F08B2DE9F24F35
:100A70008EB0054604AFD5E90001CDE902019DF82D
:100A8000380040F020008DF8000061280BD0286B62
:100A9000002848BF062005D404BF9DF80000672841
:100AA00001D1012028636968C1F30A5040F2FF7345
:100AB00098421CD1080304BF2868002809D10320EC
:100AC000A8619DF8380061381A2837D30FF24861C1
:100AD00008E00320A8619DF8380061381A282AD35D
:100AE0000FF22C610322E86800F0F6FBBBE1010085
:100AF00017D1284600F02BFC012812DB002400202F
:100B00009DF80010612920D1E968302201F8012BFD
:100B10004A1CEA609DF83820612A0CBF78225822CE
:100B20000FE040F2FE316A6861F31E526A60441AB7
:100B30004FF0FF30E4E70FF2D451D3E70FF2D45176
:100B4000D0E70A706969891C696110B90026B0464E
:100B50007FE19DF80000612840F09780286B002815
:100B60004CBF2126461C36B2771CD5E900ABDDE927
:100B700002010022002300F00DFC3ABF8BF0004080
:100B8000CDE902A0CDE902ABA4F104088DF8102054
:100B90000DF11109012F33DBDDE9020100220023F1
:100BA00000F010FC2CD21C2102A800F023FCDDE98F
:100BB000020100F0ADFC0446FF1F012F09DB00F02D
:100BC000D3FC02460B46DDE9020100F0E5FCCDE96D
:100BD000020109F20700072104E004F00F0200F807
:100BE000012D2411012C01DB491EF6D5491E5CBFE5
:100BF000002200F8012DF9D500F20709012FCBDA08
:100C00000DF11100A9EB00010DF11107B142B8BFC0
:100C10000E4636B2002E31D43046884206DA04A998
:100C200041184978082928BF0F2100D2002104AAC1
:100C3000821800E0761E401E12F801398B42F9D06E
:100C40000F2904D104A941184A78521C4A7000287F
:100C500003D504AF761C08F1040836B2701E0DD41B
:100C6000C1190A783032D2B23A2A03D39DF838300B
:100C70003A3B9A1801F80129401EF2D5286B00284A
:100C800040F1E780701E2863E3E0DDE90201002205
:100C9000002300F07FFB05D2DDE9020181F0004175
:100CA000CDE9020124B247F2975060436F4990FBAF
:100CB000F1F80FFA88F8C8F107040027DFF8B091BF
:100CC000012C19DBDDE902ABE00707D55046594698
:100CD0003A464B4600F020FD82468B46641038466B
:100CE00049463A464B4600F017FD07468946002C18
:100CF000EAD1CDE902AB21E064429246DFF874B15B
:100D000014D0E00707D5504659463A464B4600F006
:100D100003FD82468B466410384649463A464B46A8
:100D200000F0FAFC07468946002CEAD1DDE9020111
:100D300052465B4600F0C2FDCDE902019DF800007D
:100D400066280CBF08F10A000620296B4618142EED
:100D5000A8BF132630208DF810000DF11104464F66
:100D6000012E33DBDDE9020100F0E8FB04F10801AC
:100D700004220A24B0FBF4F303EB830EA0EB4E0035
:100D8000303001F8010DB3FBF4F000EB8004A3EB6D
:100D90004403303301F8013D521EEAD101F1080449
:100DA000083E012EDCDBDDE9020100F0C7FB00F0AC
:100DB000E5FB02460B46DDE9020100F0EDFB0022F7
:100DC0003B4600F0A9FCCDE90201CBE70DF1110093
:100DD000201A0DF111079DF81110302906D1401E7F
:100DE000A8F1010817F8011F3029F8D09DF800106C
:100DF000662904BF0FFA88F808F1010103D06529BC
:100E00000CBF012100212A6B8E1836B2B042B8BF48
:100E1000064636B2002E1CD43146814204DAC85D43
:100E2000352828BF392000D23020CA19521E00E0D0
:100E3000761E491E12F801398342F9D0392802D1B1
:100E4000C85D401CC855002903D57F1E761C08F1DB
:100E500001080FFA88F0009033B23A469DF8381036
:100E6000284600F00BF80FB0BDE8F08FA086010017
:100E7000000024400000F03F84D797412DE9F0475F
:100E800086B006468A4690461C46BDF9385000F0AA
:100E900056FE406A90F80090376B012C02DA01246C
:100EA0000FF278284AF02000662807D067287AD108
:100EB0006FF003018D427CDBBD427ADA6D1C66283F
:100EC0000AD096F83800000702D4BC42B8BF2746C3
:100ED0002DB27F1B48BF0027F068B1692DB2012DEC
:100EE00021DA4A1C30230B54012F03DA96F838100C
:100EF000090702D502F80090521CB261EF42B8BF58
:100F00007D422DB269427162EF19A742B8BF3C46DB
:100F100024B2F46122464146B369181800F0DCF9A6
:100F2000381BB062BFE00818AC4216DA22464146D0
:100F300000F0D2F9B1696118B161281B7062012F0C
:100F400003DA96F83800000705D5F06801F800903C
:100F5000F069401CF061B762A5E02A46414600F006
:100F6000BBF9B0692818B061641B012F03DA96F849
:100F70003810090704D5411CB161F16800F80190EF
:100F800024B2A742B8BF3C4624B2224605EB080172
:100F9000B069F368C01800F09FF9B0692018B0611B
:100FA000381B70627FE0BAF1610F14D14FF0700A04
:100FB00016E0BC4204DA96F83810090758BF2746F5
:100FC0007F1E48BF0027BAF1670F14BF4FF0450AD4
:100FD0004FF0650A04E0BAF1410F08BF4FF0500A24
:100FE000B1694A1CF06818F8013B0B54012F03DA71
:100FF00096F83810090702D502F80090521CB26129
:10100000012F10DB641E24B2A742B8BF3C4624B2B5
:1010100022464146B369181800F05EF9B0692018FD
:10102000B061381B7062B069F16800EB010808F824
:1010300001AB002D5CBF2B2008F8010B03D52D2040
:1010400008F8010B6D42002402AF2DB2012D0EDB1A
:101050000A22294600A800F08BFD019807F8010B31
:10106000009D641C2DB2012DF2DA022C06DA4AF042
:101070002000652804BF302008F8010B1CB930207F
:1010800008F8010B09E0012C07DB641E02A8205CB4
:10109000303008F8010B012CF7DAB069F16840181C
:1010A000A8EB0000F06196F8380000F0140010285A
:1010B0000DD17069B1690818716A0818F1690818CA
:1010C000B16A0818716B8842BCBF081A306206B05A
:1010D000BDE8F087F8B504460D4616461F460020C9
:1010E00077B116F8011BA868A047A86030B1E86A7C
:1010F000401CE86200207F1EF3D1F2BD4FF0FF30AC
:10110000F2BD0000686A6C747A4C00006E616E007B
:101110004E414E00696E6600494E4600300050F860
:10112000041B61B150F8042BD30744BFA9F101039C
:101130009A18002342F8043B091FFAD1EFE77047E1
:101140000278C9B28A421AB11CBF10F8012FF9E720
:1011500018BF00207047000000F10103810704D090
:1011600010F8011B89B18107FAD10268B2F101318F
:10117000914311F0803F04BF50F8042FF6E710F8B8
:10118000011B11B110F8011BFBE7C01A70470000EA
:10119000C9B2830706D0521E22D310F8013B9942F0
:1011A000F7D11FE0083A13D302F1040241EA01210A
:1011B00041EA014150F8043B121F21BF4B40A3F10B
:1011C000013C2CEA030C1CF0803FF3D0C9B2001F95
:1011D000083210F8013B521E28BF91EA030FF8D8DD
:1011E00018BF0120401E70471B4213D1094236D15F
:1011F0002AB18446B0FBF2F002FB10C2704700F047
:10120000BFBCFCD30022002370470B00020000216A
:1012100000207047904271EB030CF6D370B5B1FA21
:1012200081F4B3FA83F52C1BA340C4F1200532FAF4
:1012300005F63343A2405FF00046E64002E05B085B
:101240005FEA3202841A71EB030524BF2046294667
:101250007641F4D302000B003000002170BD012A5A
:10126000CFD970B5140C20D0B1FA81F4B2FA82F55E
:10127000C4F120046419B4F12006D6D3B2405FF063
:101280000044F440002502E052085FEA3303C61A26
:1012900071EB020E24BF3046714664416D41F3D3B9
:1012A00002000B002000290070BD0C46B1FBF2F1DA
:1012B00002FB11452D0445EA1045B5FBF2F402FB93
:1012C000145580B240EA0545B5FBF2F002FB10521E
:1012D00040EA044070BD000062B38B0708D0521E84
:1012E00011F8013B00F8013B00F024808B07F6D198
:1012F000830740F0208000BF103A07D330B4B1E834
:101300003810103AA0E83810F9D230BC530724BF87
:10131000B1E80810A0E8081044BF51F8043B40F8B9
:10132000043BD20724BF31F8022B20F8022B44BF24
:101330000B7803707047083A07D3B1E80810083AF1
:1013400040F8043B40F804CBF7D25307E4E730B44D
:10135000416801F00042012143681B031B0B4360FD
:1013600004BF0368002B0ED003684468DD0F45EA14
:10137000440444605B000360491EE302F4D5436803
:101380001B031B0B436043681A434260084630BC92
:10139000704700004FF4001C1CEB410F94BF1CEB86
:1013A000430F09E041EA030C50EA4C0C52EA0C0CE2
:1013B00003D2994208BF9042704714BF8B428242C9
:1013C000704700004FF4001C1CEB410F94BF1CEB56
:1013D000430F09E041EA030C50EA4C0C52EA0C0CB2
:1013E00003D28B4208BF8242704714BF9942904299
:1013F0007047000070B504460D466068C0F30A509F
:1014000040F2FF72904207D16068000304BF206879
:10141000002818D0022070BD010004D12046FFF73B
:1014200096FF012867DA012D0FDB40F2FF71091AE0
:101430008D420AD36068002847BF00202F49002052
:101440002F49C4E90001012070BD4142A9426168F1
:1014500006DA2C4A1140401941EA0050606053E01E
:1014600001F0004162681203120B42F480126260C4
:10147000401E451905F13500352803D36160002071
:10148000206070BD002215F11F0F05DA203522689B
:101490006068206000206060684213D0521E924154
:1014A000D243C0F1200325689D4055EAD2722568D9
:1014B000C540666806FA03F32B432360636823FA8A
:1014C00000F06060606808436060B2F1004F03D8CC
:1014D0000BD12078C00708D52068401C2060206808
:1014E00018B96068401C60600EE06068884204BF04
:1014F00020680028F8D1002070BD00000000F0FF37
:101500000000F07FFFFF0F804FF0FF3070BD000044
:10151000F446400D40EAC120490006D200F014F81C
:10152000004248BF6FF00040604700F00DF84FF0F8
:10153000004188428CBF084640426047400D40EA67
:10154000C120490080F00D8040F00040490DA1F518
:101550008061491C05D4D1F11F0154BFC840C01798
:1015600070474FF000007047010040F10980F446D9
:10157000404200F005F851F000416047010000BF13
:1015800009D0B0FA80F18840C91CC1F58461090511
:1015900001EBD0214005704770B44FF0004591EA4F
:1015A000030F44BF6B4000F0F7BA00BF841A71EB21
:1015B000030604D26E40001BB141121973414FF46F
:1015C000001C1CEB410F34BF7CEB430684E00C0D88
:1015D000A4EB1356362E7DDC012E43DC45EAC323F3
:1015E00043EA525312BFD20292025B08240545EA35
:1015F000C12141EA5051D2EBC020994125D407D1F5
:10160000B0FA80F610FA06F164D00020203608E027
:10161000B1FA81F6B140C6F1200220FA02F211437C
:10162000B0404FEAF474B4EB465434F001064FEA8C
:1016300074040AD8D6F50016760D04F00044F04084
:1016400061FA06F25040F1404840C00A40EA415079
:1016500021F0004128BF5FEA500550F1000044EB43
:10166000D12137E045EAC323DB0A45EAC121C90A93
:10167000B6F120050EDD42EA0242120CC5F1200649
:1016800003FA06F6EB4042EA06056D42984161F125
:1016900000010DE062FA06F5F240554063FA06FCDF
:1016A00082EA0C02F3405A406D42904161EB030123
:1016B00011F4801F05D1641E620502D06D00404107
:1016C000494121F48011430875F1004350F10000B5
:1016D00041EB045170BC70471CEB410F15D223F055
:1016E000004352EA43060BD04FEA4C0CBCEB410FCF
:1016F00004D80C0D661E342EB7DDEBE7801A994135
:1017000050EA410608BF0021E4E708BF1CEB430F85
:1017100028BF6FF00001DDE7B0B581EA030C0CF0E3
:10172000004C40F2FF7515EA11541DBF15EA13571E
:10173000AC42AF4239E0E41923EA455343F4801345
:10174000C90241F0004141EA505EC7021100A7FB07
:10175000020200284FF00000EEFB01204FF00001D4
:10176000E3FB072118BF42F0010240180021494164
:10177000E3FB0E01A4F580640F0302D25200404146
:10178000494154F101046CDD470872F1004250F107
:10179000000051EB0451A1F580115CBF41EA0C013E
:1017A000B0BD4CEA05510020B0BD05EA1357AC426C
:1017B00014BFAF4241E050EA410E1CBF52EA430E53
:1017C00002E061460020B0BD24423C441BD15FEAE8
:1017D000070EF6D0090302BF01460020AEF1140E39
:1017E000B1FA81F7AEEB070401FA07FE0C37C7F137
:1017F000200100FA07F7C8404EEA000E23EA4553DD
:1018000043F48013A2E733F00043B3FA83F704BF35
:10181000B2FA82FE77440B3FE41BB7F1200E2FBFD4
:1018200002FA0EF3BB40C7F1200E22FA0EFE38BFBB
:1018300043EA0E03BA40641C82E750EA410E14BF2B
:1018400052EA430E6FF000014FF4001717EB430FFD
:101850008ABF194617EB410FB5E74CEA0551002046
:10186000B0BDD4F10104B4F120070FDAC4F12007B0
:10187000520828BF42F0010210FA07F501FA07F7F3
:10188000E1BF2A43E0403843E1400FE0352C98DCCB
:10189000C7F1200452EA400220FA07F218BF42F0D2
:1018A000010231FA07F0A1400A43002172F100421F
:1018B00050F1000051EB0C01B0BD0000F0B540F25A
:1018C000FF7581EA030C0CF0004C15EA11541DBFA2
:1018D00015EA1357AC42AF42E5E0BC41C1F3130136
:1018E000C3F31303801A994143F4801304D2641E96
:1018F0004000494180185941C90241EA5051B1FBA9
:10190000F3F603FB1611A2FB0675D7EBC020A94125
:1019100002D2761E80185941C90241EA5051B1FBEA
:10192000F3FE03FB1E11A2FB0E75D7EBC020A941ED
:1019300003D2AEF1010E80185941890241EA90515B
:10194000760546EA8E2EB1FBF3F603FB1611A2FBD9
:101950000675D7EB8020A94102D2761E8018594126
:10196000C90241EA50514EEA060EB1FBF3F603FB01
:101970001611A2FB0675D7EBC020A94102D2761E34
:1019800080185941C90241EA5051B1FBF3F703FBFA
:101990001711A2FB0735D3EBC020A94167F100075F
:1019A0000CBF004247F0010766F3D5274FEA1E310E
:1019B000B80814F5806412DDBD0775F1004250EBE4
:1019C0000E5051EB045111F5801F5CBF41EA0C0130
:1019D000F0BD4CF07F6141F0E0410020F0BDBD075B
:1019E0006D0840EA0E5041F48011D4F10104B4F1C5
:1019F00020060ADAC4F120060200E04001FA06F3EC
:101A0000E1401843B24015430EE0342C13DCC6F11C
:101A1000200445EA40056D0820FA06F2154321FA34
:101A200006F0A1400D43002175F1004250F1000085
:101A300051EB0C01F0BD00205FEA0C01F0BDCFB905
:101A400092185B41B3FA83F704BFB2FA82F6BF196A
:101A50000B3FB7F120062FBF02FA06F3BB40C7F1D8
:101A6000200622FA06F638BF3343BA401CB1E41907
:101A7000641E33E77F4231F00041B1FA81F404BFC4
:101A8000B0FA80F6A4190B3CB4F120062FBF00FA7F
:101A900006F1A140C4F1200620FA06F638BF314312
:101AA000A0403C1B1AE7AC421ABF05EA1357AF42ED
:101AB00012E050EA41061CBF52EA4306BFE750EA73
:101AC0004107304661461CBF41EA0551F0BD52EA6C
:101AD000430C08BFC143F0BD00204FF4001616EBC5
:101AE000410F98BF16EB430F08BF16EB410F24BF01
:101AF000C14305E016EB430F0CBF61464CEA0551AC
:101B0000F0BD000080B5134800F0B0F80FF24801B6
:101B1000016041608160C1600161416181610FF2DA
:101B20003C0242628162C162016341630FF2300292
:101B300082630FF23402C2630164416401BD10B5D7
:101B4000044800F093F80446206808B9FFF7DAFF6C
:101B5000204610BDE80D0014000000002E0000001B
:101B600066616C73650000007472756500000000AA
:101B700091FBF2F303FB1211C0E900317047000042
:101B80007047000070B44FF0004591EA030C44BF69
:101B90006B40FFF70BBD00BF841A71EB030603D245
:101BA000001BB141121973414FF4001C1CEB410F93
:101BB00034BF7CEB430443E00C0DA4EB1356352EED
:101BC00050DC45EAC323DB0A45EAC121C912B6F15C
:101BD00020050DDD63FA05F6EB4086EA03051242A7
:101BE00018BF45F00105C01851F100010CD213E0F7
:101BF00062FA06F5F2405540F3415A40B340F340D3
:101C00005A408018594107D349085FEA30005FEA1B
:101C1000350528BF45F0010501F58011420875F131
:101C2000004250F1000041EB045170BC4FF4001C25
:101C30001CEB410F38BF70470020090D09057047A4
:101C40001CEB410F10D252EA43060BD0BCEB410F04
:101C500005D80C0DAB43661E342EB5DD02E0AB4358
:101C60008018594170BC704770BC704770470000C5
:101C700038B5DFF8403ADFF8402A14001D00DFF8DD
:101C80003C0A0168DFF8380A00F088FD01002B00EB
:101C90002200DFF8300A00F0EDFDDFF82C3ADFF823
:101CA0002C2ADFF82C1ADFF82C0A00F0E3FD31BDF6
:101CB0002DE9F24F84B0814600200290002003906D
:101CC0000026002001900025002400274846DFF868
:101CD000081A096800F0D8FD8046DFF8000AB0F95C
:101CE000000000F045FE0100DFF8F409006800F094
:101CF000CBFD00F057FE02000B00DFF8E809DFF82B
:101D0000E819FFF709FD82468B46DFF8E009006815
:101D100000F048FE02000B0050465946FFF7CEFD8A
:101D200002000B00DFF8C809DFF8C819FFF7F4FC60
:101D300082468B46404600F035FE02000B00DFF87D
:101D4000B809DFF8B819FFF7E7FC52465B46FFF722
:101D500019FF00F04FFE0290DFF868090299C16098
:101D6000DFF89C09B0F90000DFF89819B1F900100C
:101D70000818022190FBF1F0DFF860190880DFF805
:101D80005C09B0F9000000F0FEFADFF87C09006899
:101D900000F0EEFD0100DFF84809006800F074FD76
:101DA000DFF84819096800F06DFE00F0FBFD020045
:101DB0000B00DFF83C09DFF83C19FFF7ADFC00F041
:101DC00019FE0390484600F05DFA4046002100F0FD
:101DD000D7FE2DD8DFF8E4080068494600F0DEFCA5
:101DE0000400DFF828090068414600F0D7FC210014
:101DF00000F0D8FE00F0D6FD06000F00404600F0CF
:101E0000D1FDDFF80C29DFF80C39FFF785FC040061
:101E10000D00404600F0C6FD22002B00FFF77CFCC1
:101E200032003B00FFF7AEFE00F0E4FD06002EE0BE
:101E3000DFF888080068494600F0B0FC0400DFF8CD
:101E4000CC080068414600F0A9FC210000F0AAFE81
:101E500000F0A8FD06000F00404600F0A3FDDFF8EB
:101E6000B028DFF8B038FFF757FC04000D004046FB
:101E700000F098FD22002B00FFF74EFC02000B0043
:101E800030003900FFF788FB00F0B4FD0600DFF8F2
:101E90004808C0F80090DFF880080078002839D1A1
:101EA0004846DFF8781800F06BFE17D94846DFF88F
:101EB000701800F0B9FE11D30498DFF8681800F02C
:101EC000B3FE0BD3DFF81408B0F900004FF60D6134
:101ED000401A40F2E73180B2884212D3DFF8380866
:101EE00001210170DFF84008006800F041FDDFF8D3
:101EF0003C18096800F052FC019900F053FE019073
:101F00007CE004980090330001AA0399029800F045
:101F1000A8FA73E0DFF80008007801286ED1DFF836
:101F20009C070168DFF8980700F038FC00F03AFDE4
:101F3000DFF8FC27DFF8FC37FFF7EEFB04000D00AD
:101F4000DFF89C07006800F02DFD22002B00FFF752
:101F5000E3FB02000B0014001D00484600F022FDC8
:101F600022002B00FFF716FA3AD2484600F01AFD7D
:101F700002000B0090469946DFF840070168DFF841
:101F8000400700F00BFC00F00DFDDFF8A427DFF8A0
:101F9000A437FFF7C1FB04000D00DFF84407006819
:101FA00000F000FD22002B00FFF7B6FB91F000418E
:101FB00042464B46FFF7EEF912D20498DFF8781745
:101FC00000F0DEFD0CD8DFF8500700210170049806
:101FD0000090330001AA0399029800F042FA0DE044
:101FE000DFF84407006800F0C3FCDFF84017096819
:101FF00000F0D4FB019900F0D5FD0190019831006B
:1020000000F0D0FD060000F021FEDFF83007DFF819
:10201000301701605FF07E50DFF82017096800F08C
:1020200031FD01005FF07E5000F02EFC310000F029
:10203000B5FB00F04DFF04005FF07E50DFF8FC16AA
:10204000096800F01FFD5FF07E5100F0ABFD31002C
:1020500000F0A4FB00F03CFF0500DFF8A406B0F997
:102060000000DFF8A016B1F90010081800F080FC9D
:102070000600DFF88C06B0F90000DFF88816B1F929
:102080000010401A00F074FC0100300000F0FAFC6F
:102090000700DFF86C06B0F90000DFF86816B1F948
:1020A0000010884219D1DFF85C06B0F90000002862
:1020B00013D1DFF888060068002100F061FD02D22C
:1020C000DFF8807633E0DFF874060068002100F066
:1020D000ABFD2CD2DFF8707629E0DFF82406B0F9EA
:1020E0000000DFF82016B1F900100818022190FB5B
:1020F000F1F0093013281AD238005FF07E5100F059
:1021000093FD14D23800DFF8441600F039FD0ED8E4
:102110003800002100F034FD02D25FF07E5706E067
:102120003800002100F080FD01D2DFF824765FF056
:102130007E50DFF80816096800F0A4FC06005FF086
:102140007E50390000F09EFC0100300000F09CFB46
:10215000DFF88015C860DFF87C05C06800F022FC5D
:10216000DFF8F025DFF8F035FFF7D6FA06000F00AC
:10217000DFF86005C068DFF85C15096900F084FBD2
:1021800000F010FCDFF8D425DFF8D435FFF7C4FAEF
:1021900032003B00FFF7F6FC00F02CFCDFF8C41522
:1021A0000860DFF82005DFF81C1509694161DFF8D8
:1021B0001405DFF81015C9680161DFF81805DFF8AC
:1021C000141509694161DFF80C05DFF80815C968C5
:1021D0000161DFF89405DFF86415096801604FF4C8
:1021E0007970844201DB40F2E334DFF880058442F9
:1021F00001DADFF878454FF47970854201DB40F26F
:10220000E335DFF86805854201DADFF86055002D17
:102210000DD44FF47A70421B0421002000F0AFFF70
:102220004FF47A720521002000F0A9FF0BE04FF473
:102230007A720421002000F0A2FF05F2E8320521A5
:10224000002000F09CFF002C0DD44FF47A72062180
:10225000002000F094FF4FF47A70021B0721002049
:1022600000F08DFF0BE004F2E8320621002000F0C0
:1022700086FF4FF47A720721002000F080FF05B03E
:10228000BDE8F08F30B50021DFF8E424126809239F
:10229000B2FBF3F2282A2BD2DFF8D4140968092202
:1022A000B1FBF2F302FB1311002921D1DFF8C014B6
:1022B00009680922B1FBF2F4DFF8B85400F008FE17
:1022C00025F81400DFF86004002101600021C9B284
:1022D000282944D2DFF850040068C9B2DFF89424FA
:1022E00032F911208018DFF840241060491CEEE715
:1022F000DFF87C1409680922B1FBF2F1283928299A
:102300002DD2DFF86C1409680922B1FBF2F302FB4D
:102310001311002923D1DFF8581409680922B1FBF1
:10232000F2F1DFF8502412EB410400F0D1FD24F863
:10233000500CDFF8D4030021016000210CE0DFF82D
:10234000E8030068C9B2DFF82C2432F911208018A4
:10235000DFF8D4231060491CC9B22829EFD3DFF875
:1023600010040068401CDFF808140860DFF800045F
:1023700000684FF43471884204D1DFF8F4034FF45D
:10238000A071016030BD0021DFF8EC231268092341
:10239000B2FBF3F23C2A26D2DFF8DC1309680922EB
:1023A000B1FBF2F302FB131100291CD1DFF8C813B3
:1023B00009680922B1FBF2F1DFF8C02322F811000D
:1023C000D148002101600021C9B23C293AD2CE484F
:1023D0000068C9B2DFF8A42332F911208018CA4A74
:1023E0001060491CF0E7DFF8901309680922B1FB7F
:1023F000F2F13C393C2925D2DFF87C130968092227
:10240000B1FBF2F302FB131100291BD1DA49096871
:102410000922B1FBF2F1D94A12EB410121F8780C03
:10242000B94800210160002109E0B7480068C9B23D
:10243000D24A32F911208018B34A1060491CC9B23F
:102440003C29F2D3CC480068401CCB490860CA48FC
:102450000068B0F5876F03D1C7484FF4F071016091
:1024600070472DE9F04307000B001600079C180089
:10247000002100F085FB22D83800002100F080FB0D
:102480001DD22000BE4900F07BFB04D92000BD49CD
:1024900000F0CAFB09D289480168894800F07EF93A
:1024A000390000F07BF93060F4E08448016884482A
:1024B00000F074F9390000F071F93060EAE01800BA
:1024C000002100F0B1FB80F090803800002100F086
:1024D000ABFB80F08A80002481480068002100F076
:1024E0006DFF40D075480168754800F057F900F05D
:1024F00059FA80468946380090F00040390000F0D3
:102500004DF900F04FFA7C4A9F4BFFF705F90400A4
:102510000D00380000F046FA22002B00FFF732FBD6
:1025200000F068FA6E49096800F0ACFA00F03AFA77
:102530000022964BFFF7F0F804000D005F48016899
:102540005F4800F02BF900F02DFA22002B00FFF776
:10255000E3F802000B0040464946FFF71DF800F083
:1025600049FA04003BE055480168554800F016F967
:1025700000F018FA80468946380090F00040390093
:1025800000F00CF900F00EFA5B4A7F4BFFF7C4F83D
:1025900004000D00380000F005FA22002B00FFF7C0
:1025A000F1FA00F027FA00F0FDF90022774BFFF76F
:1025B000B3F804000D0041480168414800F0EEF80E
:1025C00000F0F0F922002B00FFF7A6F802000B0044
:1025D00040464946FEF7E0FF00F00CFA04002000F8
:1025E000390000F0DBF8306054E01800002100F002
:1025F000C7FA25D22000002100F0C2FA0CD24348CD
:102600000068210000F0CAF85FF0814100F03AFA5A
:10261000316800F0C7FA30602000002100F004FBB0
:1026200038D23A480068210000F0B8F85FF08141E4
:1026300000F028FA0100306800F026F9306029E047
:102640001800002100F0F0FA24D22000002100F050
:1026500097FA0CD22D480068210000F09FF85FF037
:10266000814100F00FFA316800F09CFA30602000E0
:10267000002100F0D9FA0DD224480068210000F0B2
:102680008DF85FF0814100F0FDF90100306800F045
:10269000FBF8306030683E4900F072FA01D83D48DE
:1026A000306030683C4900F0BFFA01D23A483060EF
:1026B000BDE8F083CDCC4C3D0AD7A33BE408001421
:1026C00000004041840C0014ACC5A7380AD7A33CD5
:1026D00017B7D138200D0014280C0014D00D0014A9
:1026E000F0080014D7A3703D0AD7EF3F0000001494
:1026F00039B4C876BE9F9A3F7B14AE47E17A743FE7
:10270000D20D0014D40D0014180D0014EC080014A0
:10271000FA7E6ABC7493783FE30D00140100FA441A
:1027200000007AC40080BBC47C0C0014E8080014CC
:102730009A9999999999F13FFFFF47C3F80A0014B4
:1027400020BCBE4C00247449002474C9FEFF7FBF26
:10275000000080BF2D431CEBE2361A3FF168E3888E
:10276000B5F8143F3C0D0014FC0A00141DFCFFFFDB
:10277000800C00142C0C00141C0D0014A00C001470
:1027800001004844000048C4E17A843F0000E03F73
:1027900001002F4400002F4400002FC4FF2212EA42
:1027A000D05C1DBF12EAD153944593422BE09C4468
:1027B000D30780EA01021A4043EA002043EA0121DC
:1027C000A1FB0030410038BF40007CF17F010BDBF2
:1027D000FE294ADA5B0842EAC15153EA006373F109
:1027E000004C51EB10207047D1F1080CDCF12001B6
:1027F0002FDB5B0810FA01F10B4373F1004120FA63
:102800000CF05041704794451CBF02EAD1539342EB
:1028100080EA010202F000421DD0400019D04900B8
:1028200017D05BB9634514D00902B1FA81F399401E
:10283000BCEB030CC00140F00040C1E70002B0FA5D
:1028400080FC10FA0CF0B3EB0C0CC90141F0004114
:10285000B6E71000704740000AD0490008D010F1D8
:10286000807F94BF11F1807F02E042F0FF4070470B
:10287000D04370470160426083600021C160002145
:10288000016100214161704790EA010F44BF81F06E
:10289000004100F08FB900BF431A4FF000423EBF25
:1028A0005340C01AC91800BFD3095FEAD05C13EBCC
:1028B000400F34BFB3EB410F40E07CEBD1530CD35E
:1028C00042EA012122D8D1EB402009D3400A28BF97
:1028D0005FEA500140EBCC507047401A15D04002DF
:1028E000B0FA80F2521C9040400A4FEA3C23B3EB0E
:1028F000026384BF00EB730007E040F400001A1687
:10290000DB07C2F10102D04018437047182BFCDCF2
:1029100031FA03F202FA03F3591A38BF42F0010206
:10292000D2EB40203CBF4000ACF1010C5FEACC5C34
:10293000C20572F100414CEB5020704713EB400F81
:102940000FD24B0009D0ACEBD153022B03DB490271
:10295000172BDDDD70479143401A4300D5D100208D
:10296000704713EB410FD0D36FF0000070470000A9
:10297000002840F10980F446404200F005F850F08C
:1029800000406047002800BF0AD0B0FA80F18840BC
:10299000D1F19D01C905020672F1004241EB102000
:1029A000704700005FF0FF0C1CEAD05114BF614576
:1029B00006E0C110400721F0E04101F1605170478D
:1029C00079B900F0004100020AD0B0FA80FC00FAA8
:1029D0000CF001F16051A1EB0C5101EBD02140054D
:1029E000704741020CBF40F4E0016FF0000100208D
:1029F000704700004FEAF17CBCF1E04C2CBFBCF505
:102A0000001F11E05FEA4C0C34BFBCF17F5F2EE089
:102A10005FEA9C0C4FEA0C1C4FEA3C0CC10071F1C0
:102A200000414CEB50707047C90241EA5051C0025E
:102A300018BF41F0010141F000414FEA6C50C0F174
:102A40000900212810D240EACC7CCCF1200C11FAEC
:102A50000CF070F10040CCF1200C21FA0CF00CF0DD
:102A6000004C40EB0C0070474FEACC7070474900B7
:102A700011F5001F04D84FEACC10FF30C005704795
:102A8000C817704710B5FF2313EAD0541DBF13EACF
:102A9000D1529C429A4239E0A41ADA0780EA010333
:102AA000134042EA012142EA0020421A3CBF641E60
:102AB00001EB4202090AB2FBF1FE01FB1E221202E7
:102AC000B2FBF1F001FB10226EF30F201202B2FBF9
:102AD000F1FE4EEA00207F3406DDFE2C24DA53EAB4
:102AE000500050EBC45010BDD4F1020401FB1E2273
:102AF00040F08071192C1DDC21FA04F0C4F120048F
:102B0000A140114371F10042584110BD9C421ABFCF
:102B100003EAD1529A420FE080EA010E0EF0004320
:102B2000400004D0490016D143F0FF4010BD4900D9
:102B300008BFD343180010BD9C4205D1D21AF7D06C
:102B400001F00041484010BD4A0212BF084648400B
:102B500000F0004010BD4AB90902B1FA81F291407B
:102B600044B1A418C00140F000409EE7C90141F003
:102B7000004152420002B0FA80F4A040141B94E7D6
:102B80004FF0807C1CEB400F94BF1CEB410F05E025
:102B900040EA010C5FEA4C0C01D28142704718BF39
:102BA0008842704790EA010F44BF81F00041FFF76F
:102BB00073BE00BF421A3CBF801A89184FF0004C08
:102BC000C0F3C752FF2A24D0C1F3C75313B3D21A9C
:102BD000D2F1190327DD4CEA01214CFA03F321EA73
:102BE0000303D140C20D4CEA0020401834BF20EA54
:102BF0000C004CEA5000D20553EA006373EB0C0C56
:102C000052EB1020420012F1807F38BF7047C00D98
:102C1000C0057047490212BF9A4200EB5120F8E705
:102C2000D2F11703D9D570474FF0807C1CEB400FD1
:102C300094BF1CEB410F05E040EA010C5FEA4C0C2D
:102C400001D28842704718BF814270472DE9F04792
:102C5000002500275FF00008002400264FF0FF0940
:102C600040F2FF30814690480068FFF78BFE8F49A5
:102C7000FFF794FD82464846FFF784FE0100504668
:102C8000FFF700FF05008A480068FFF77BFE8749D1
:102C9000FFF784FD82464846FFF774FE0100504668
:102CA000FFF7F0FE070083480068FFF76BFE7F49DF
:102CB000FFF774FD82464846FFF764FE0100504668
:102CC000FFF7E0FE80467C480068FFF75BFE77492F
:102CD000FFF764FD82464846FFF754FE0100504668
:102CE000FFF7D0FE040075480068FFF74BFE6F4900
:102CF000FFF754FD82464846FFF744FE0100504668
:102D0000FFF7C0FE060028004146FFF7BDFD6749FA
:102D1000FFF7B8FE050065483900FFF7B5FD6349C8
:102D2000FFF7B0FE07005FF0000828000021FFF762
:102D300027FF02D25FF0010806E028000021FFF71C
:102D400073FF01D25FF0FF380022002300245FF000
:102D5000000AFF264FF0FF090520040007208246E5
:102D600028000021FFF760FF01D295F00045002206
:102D700000E0521CD2B2E4B2A24211D23800D2B268
:102D80004F4951F82210FFF7FBFEF2D83800D2B2BB
:102D90004B4911EB82014968FFF746FFE9D2160063
:102DA000002300E05B1CDBB25FFA8AFA534511D2C4
:102DB0002800DBB2434951F82310FFF7E1FEF1D8B8
:102DC0002800DBB23F4911EB83014968FFF72CFF74
:102DD000E8D299465FFA89F9F6B238203A4900FB01
:102DE000061010EBC90040685FFA89F9F6B2382185
:102DF000354A01FB062151F83910FFF745FD040063
:102E000028005FFA89F92F4951F82910FFF73CFD96
:102E100005005FFA89F92B4810EB890040685FFADA
:102E200089F9284951F82910FFF72EFD01002800E3
:102E3000FFF728FE05003800F6B2214951F82610A8
:102E4000FFF722FD0700F6B21D4810EB8600406830
:102E5000F6B21B4951F82610FFF716FD01003800A5
:102E6000FFF710FE2900FFF799FC2100FFF796FC01
:102E70005FFA89F9F6B23821134A01FB062151F8AD
:102E80003910FFF78FFE114908605FF0FF300FFA2D
:102E900088F8804505D10D480C49096891F000413A
:102EA0000160BDE8F08700BF600D001400F07F45B1
:102EB000640D0014680D00146C0D0014700D0014E6
:102EC000E4070014C8070014F8070014F80A0014F7
:102ED0004100090E7F3915D4D1F11F0114D44000EF
:102EE00007D2C00140F00040C84048BF6FF000402A
:102EF0007047C00140F00040C8404CBF4FF0004058
:102F0000404270470020704700424FF0004058BFD9
:102F1000C043704780B5C0B2002803D0022864D0F7
:102F200048D37DE0DFF88004006850F08070DFF85F
:102F300078241060C9B200290BD0022915D00ED315
:102F400004291ED017D3062927D020D307292AD039
:102F50002FE04FF48061412000F03EFA60E04FF432
:102F60008061422000F038FAF8E74FF48061432096
:102F700000F032FAF2E74FF48061442000F02CFABE
:102F8000ECE74FF48061642000F026FAE6E74FF4A6
:102F90008061652000F020FAE0E74FF48061662050
:102FA00000F01AFADAE74FF48061672000F014FAB3
:102FB000D4E735E0DFF8F003006850F00070DFF888
:102FC000E8231060C9B2002902D0012906D00BE025
:102FD0004FF440710C2000F0FFF921E04FF44071F4
:102FE0000D2000F0F9F9F8E71AE0DFF8C0030068F7
:102FF00050F08070DFF8B4231060C9B2002902D00D
:10300000012906D00BE04FF440710A2000F0E4F9EA
:1030100006E04FF440710B2000F0DEF9F8E7FFE71F
:1030200001BD2DE9F04704000D0016001F00E4B2B9
:10303000002C0DD0E4B2012C02D0E4B2022C02D15B
:10304000EDB2022D04D3FC21DFF8640300F031FA65
:103050002900C9B22000C0B2FFF75CFFDFF85403BB
:1030600000684FF47A7101FB00F95FEA1940B0FB88
:10307000F6F05FF0000A01E01AF1010A80B250FA9E
:103080000AF10129F8DA5FFA8AFABAF1080F05D3D2
:1030900040F21711DFF8180300F00BFA39FA0AF0C2
:1030A000B0FBF6F0E4B2002C03D0022C12D009D30E
:1030B00018E080B2411C01FB07F14FF47A72B1FBBA
:1030C000F2F80FE080B2411C01FB07F16422B1FB72
:1030D000F2F807E080B2411C01FB07F16422B1FB6A
:1030E000F2F8FFE7EDB2E4B2DFF8CC1251F82410A9
:1030F00011EBC501EDB2E4B2DFF8BC2252F8242096
:1031000012EBC502D26832F00402CA60EDB2E4B23A
:10311000DFF8A41251F8241011EBC5012822CA606F
:10312000E4B2DFF8941251F824105FFA8AFA1AF028
:10313000070252F008020A60E4B2DFF87C1251F88C
:10314000241080B28860E4B2DFF86C0250F82400EA
:103150000021C164EDB2E4B2DFF85C0250F8240053
:1031600010EBC5001FFA88F8C0F81080E4B2DFF851
:10317000480250F8240000214160BDE8F087F8B50E
:1031800004000D0016000020E4B2002C0ED0E4B2C2
:10319000012C02D0E4B2022C02D1EDB2022D05D3F3
:1031A0004FF4A971DFF8080200F083F9E4B2002CB3
:1031B00003D0022C14D00AD31BE0B6F57A7F05D9D0
:1031C00040F25711DFF8E80100F073F911E0652EC5
:1031D00005D340F25B11DFF8D80100F06AF908E08E
:1031E000652E05D340F25F11DFF8C40100F061F9EC
:1031F000FFE7E4B2DFF8C00150F82400806800283F
:10320000F7D0E4B2002C03D0022C10D008D315E084
:10321000401C00FB06F04FF47A71B0FBF1F70DE0B3
:10322000401C00FB06F06421B0FBF1F706E0401CF7
:1032300000FB06F06421B0FBF1F7FFE7EDB2E4B26A
:10324000DFF8740150F8240010EBC5000761F1BDF0
:1032500010B50400E4B2012C07D0E4B2022C04D073
:1032600040F21D21524800F024F9E4B22000012868
:1032700002D0022811D021E04B48006850F00070C5
:10328000494908604FF4C061082000F0A5F84FF4E8
:10329000C061092000F0A0F815E04448006850F033
:1032A0008070424908604FF4C0610A2000F094F831
:1032B0004FF4C0610B2000F08FF804E040F265216C
:1032C0003B4800F0F6F8E4B23B4850F82400406D6B
:1032D00050F00400E4B2384951F824104865E4B2D3
:1032E000354850F82400D0F8800050F00800E4B2CF
:1032F000314951F82410C1F88000E4B22E4850F84A
:1033000024000021C164E4B22B4850F824004FF699
:10331000FF718160E4B2284850F82400D0F88000A2
:1033200050F00100E4B2244951F82410C1F88000A3
:10333000E4B2214850F82400406D50F00100E4B29E
:103340001D4951F824104865E4B21B4850F8240088
:103350000021416010BD10B50400E4B2012C07D07B
:10336000E4B2022C04D040F28221114800F0A1F80E
:10337000E4B2114850F82400406800B210BD10B506
:103380000400E4B2012C07D0E4B2022C04D04FF4C4
:103390002471074800F08DF8E4B2074850F8240083
:1033A0000021416010BD00003C800440308004409A
:1033B000D06F00007C0D00142C07001440EA010CB3
:1033C0005FEA4C0C07D0884205D14FEA400C1CF153
:1033D000807F98BF8042704710B4294A12684FF42A
:1033E0000073C0B24409A3401A43254B1A60C0B20F
:1033F0004211244B53F82220012310F01F04A34054
:10340000C2F8A030C0B210F01F02C0B240111D4B74
:1034100053F8200040F8221010BC704710B4184A2E
:1034200012684FF40073C0B24409A3401A43144B0E
:103430001A60C0B24211134B53F82220012310F03E
:103440001F04A340C2F8A03031F4E061C0B210F014
:103450001F02C0B243110B4C54F8233053F8222002
:1034600012F4E0621143C0B210F01F02C0B240116A
:10347000044B53F8200040F8221010BC70470000A5
:10348000388004409C070014DFF800F06109001444
:10349000DFF800F089090014BFF34F8F544800682B
:1034A00010F4E0605349084351490860BFF34F8F5F
:1034B000FEE738B504000D00002000F0ABF82A004C
:1034C00021004D4800F0CCF8002000F0BFF84B4838
:1034D00000684FF47A7101FB00F1032000F008F955
:1034E000EDE710B504002100C9B2032000F05CFA3A
:1034F000200010BD10B50024052000F06FFA052053
:1035000000F0A0FA002854D1002000F083F811E068
:103510003B4800F0A5F8FFF7B7FF38480068642182
:1035200001FB00F1032000F0E3F80020FFF7B0FFFB
:10353000FFF7B2FF052000F085FA012800D1012431
:10354000002000F083F82F4800F08AF82B4800682C
:103550004FF4FA7101FB00F1032000F0C9F8E4B266
:10356000012CE7D1052000F06DFA0028E2D10AE035
:10357000002000F06BF821480068642101FB00F195
:10358000032000F0B5F8052000F05CFA0028EFD029
:10359000052000F057FA0128BAD1002000F056F8B3
:1035A00016480068322101FB00F1032000F0A0F86A
:1035B000EEE710BD10B514480468012000F02AF8A9
:1035C000012000F043F8E4B20F20104900FB041280
:1035D000E4B221000E4800F043F8084800684FF4B8
:1035E0007A7101FB00F1032000F082F8E8E70000A7
:1035F0000CED00E00400FA05887100007C0D001459
:10360000BC7100007072000004ED00E024000014A2
:103610002071000010B50400E4B2042C07D201228E
:103620000121E4B20D48205C00F0F0FA0DE0042422
:1036300006E001220121E4B20848205C00F0E6FA2D
:103640002000441EC0B20028F3D110BD80B5C0B226
:103650000249405C00F031FB01BD0000D8080014B5
:103660000EB400B582B003A9009100AB024601215F
:10367000034878440A30FCF7CFFE06BC5DF810FB27
:10368000CD3B000038B504000D00002D03D12421EE
:103690004348FFF70EFF4348006850F400004149DB
:1036A0000860414800210160E4B220013F496A1EE0
:1036B0004250E4B23D4810EB0410C06850F00100E5
:1036C000E4B23A4911EB0411C860E4B2374810EB98
:1036D0000410806840084000E4B2344911EB041142
:1036E0008860E4B2314810EB04100321816031BDE1
:1036F00038B504000D00002D03D147212848FFF7FD
:10370000D8FE2848006850F4000026490860264882
:1037100000688008800024490860E4B2234810EB68
:103720000410806840084000E4B2204911EB041105
:103730008860E4B220011D496A1E4250E4B21B4871
:1037400010EB0410C06850F00100E4B2174911EB0F
:103750000411C860E4B2154810EB041080684008FA
:103760004000E4B2114911EB04118860E4B20F4843
:1037700010EB041001218160E4B20C4810EB04103E
:10378000C068C007F8D5E4B2084810EB0410C06860
:1037900050F00100E4B2054911EB0411C86031BDDD
:1037A000486F00003C8004400070034000710340FB
:1037B00070B504000D00E4B2002C08D0022C2CD00F
:1037C00018D3042C4FD03BD3052C5FD071E0DFF829
:1037D000F401006850F48060DFF8E81108604FF4ED
:1037E00040716620FFF7F8FD4FF440716720FFF746
:1037F000F3FD5EE0DFF8CC01006850F40060DFF814
:10380000C41108604FF440714320FFF7E5FD4FF409
:1038100040714420FFF7E0FD4BE0DFF8A8010068AD
:1038200050F48050DFF89C1108604FF44071632021
:10383000FFF7D2FD4FF440716220FFF7CDFD38E075
:10384000DFF88001006850F40050DFF8781108605C
:103850004FF440715020FFF7BFFD4FF440715120ED
:10386000FFF7BAFD25E0DFF86001006850F48060E2
:10387000DFF8541108604FF440719920FFF7ACFD58
:103880004FF440719820FFF7A7FD12E0DFF83801F0
:10389000006850F40060DFF8301108604FF44071A8
:1038A0008920FFF799FD4FF440718820FFF794FDC0
:1038B000FFE7E4B2454850F82400C07810F0F30068
:1038C000E4B2424951F82410C870E4B23F4850F8BD
:1038D0002400E4B23D4951F8241089788170E4B2A3
:1038E000002C02D0E4B2012C05D1394800684FF415
:1038F0007A71484304E0374800684FF47A714843CE
:103900002901B0FBF1F6B6B2B6F5005F01D341F67E
:10391000FF76B0FBF5F0B6B2B0EB0615ADB2202DD8
:1039200004D340F203112C48FFF7C3FDE4B227484B
:1039300050F82400007810F0E000B6B2310A11F01F
:103940001F010843E4B2214951F824100870E4B281
:103950001E4850F824004670E4B21C4850F8240079
:10396000807A10F0E000E4B2184951F8241015F004
:103970001F0210438872E4B2144850F82400007CFF
:1039800050F08800E4B2114951F824100874E4B2F0
:103990000E4850F82400C07850F00C00E4B20B49F7
:1039A00051F82410C87070BDC0B2084A52F82020E7
:1039B00012791206F8D5C0B2044A52F82000C1713B
:1039C000704700003480044028800440B007001491
:1039D000740D00147C0D00149C70000010B50400E0
:1039E000E4B2062C0DD200220021E4B28048205C13
:1039F00000F00CF90321E4B27D48205CFFF70EFDD6
:103A000013E006240CE000220021E4B27848205C98
:103A100000F0FCF80321E4B27548205CFFF7FEFCDF
:103A20002000441EC0B20028EDD110BD80B5C0B248
:103A30006F49405C00F05DF9002801D1002000E0F2
:103A4000012002BD10B504002000C0B2FFF7EEFF58
:103A500000280FD1674800680A2101FB00F103200C
:103A6000FFF746FE2000C0B2FFF7E0FF002801D1BB
:103A7000002000E0012010BD01B45F48007802285A
:103A800028D05E4800785E499DF8002001F810209B
:103A90005A4800785A4911EB40009DF801104170D6
:103AA00056480078401C554908705448007814283E
:103AB00002D35248002101705048007851490978DA
:103AC000C0B2884203D14C480221017002E04A484A
:103AD0000121017001B0704781B04A48007848491F
:103AE00011F810008DF8000046480078444911EBA9
:103AF000400040788DF8010042480078401C414960
:103B0000087040480078142802D33E480021017014
:103B10003A4800783B490978C0B2814203D136481F
:103B20000021017002E0344801210170009801B0C9
:103B3000704731480078002801D1002000E00120C2
:103B4000704710B582B0002411E0E4B22E48205C2A
:103B5000022807D38DF8004001208DF8010000985D
:103B6000FFF78AFFE4B2284800212154641CE4B224
:103B7000062C3BD22000C0B2FFF758FF0028E4D14A
:103B8000E4B22148205C401CE4B21F496054E4B216
:103B90001D48205C0228E9D3E4B21B48205C0228BF
:103BA00008D18DF8004000208DF801000098FFF743
:103BB00063FFDBE7E4B21448205C3328D6D3E4B2D9
:103BC0001148205C33280CD18DF8004002208DF87C
:103BD00001000098FFF750FFE4B20B480221215486
:103BE000C4E7E4B2084802212154BFE713BD000036
:103BF000DC0800147C0D0014E20D0014E10D00142B
:103C0000F80B0014E00D0014200C001470B5040033
:103C10000E0015004FF480712000C0B2FFF7DCFBEE
:103C2000F6B2002E11D1E4B26011414951F82000E2
:103C3000E4B261113E4A52F821104969012214F0A0
:103C40001F039A409143416136E0E4B26011384964
:103C500051F82000E4B26111354A52F82110496947
:103C6000012214F01F039A4011434161EDB2002D6F
:103C700011D1E4B260112E4951F8200000680121F1
:103C800014F01F0291408843E4B26111284A52F8AF
:103C90002110086010E0E4B26011254951F82000BD
:103CA0000068012114F01F0291400843E4B2611141
:103CB0001F4A52F82110086070BD10B50400E4B22C
:103CC00060111B4951F82000406914F01F01C840E1
:103CD000C00703D47B211748FFF7EBFBE4B2601168
:103CE000134951F82000012114F01F029140C160D6
:103CF00010BD10B50400E4B260110D4951F8200068
:103D0000406914F01F01C840C00703D58C21094841
:103D1000FFF7CFFBE4B26011054951F820000069BC
:103D200014F01F01C84010F0010010BD0000000099
:103D30003807001414700000F4FDD43C00009643D2
:103D4000CDCC4C3D000096430000803F0000C842AF
:103D50000000803F00B0034000B00B4000000000B6
:103D60000000000000000000000000000000000053
:103D7000000000000000000000004E6F6E4D6173F7
:103D80006B61626C65000000004861726446617599
:103D90006C740000000000004D656D4D616E616740
:103DA000656D656E7400004275734661756C7400D4
:103DB00000000000000055736167654661756C7412
:103DC00000000000000000000000000000000000F3
:103DD00000000000000000000000000000000000E3
:103DE00000000000000000000000000000000000D3
:103DF00000000000000000000000000000000000C3
:103E000000535643616C6C0000000000000000008D
:103E100044656275674D6F6E69746F7200000000D3
:103E200000000000000000000000000000005065DD
:103E30006E645356000000000000000000537973C8
:103E40005469636B0000000000000000444D4130E5
:103E50000000000000000000000000444D4131005F
:103E600000000000000000000000444D413200004E
:103E7000000000000000000000444D41330000003D
:103E80000000000000000000444D4134000000002C
:103E900000000000000000444D413500000000001B
:103EA000000000000000444D41360000000000000A
:103EB0000000000000444D413700000000000000F9
:103EC00000000000444D41380000000000000000E8
:103ED000000000444D4139000000000000000000D7
:103EE0000000444D4131300000000000000000009F
:103EF00000444D413131000000000000000000008E
:103F0000444D413132000000000000000000004438
:103F10004D41313300000000000000000000444D1E
:103F200041313400000000000000000000444D4119
:103F3000313500000000000000000000444D415FEA
:103F40004572726F720000000000004D434D00008A
:103F5000000000000000000000004654464C000035
:103F6000000000000000000000526561645F436FC4
:103F70006C6C6973696F6E004C56445F4C56570009
:103F8000000000000000004C4C5700000000000042
:103F90000000000000005761746368646F670000F0
:103FA0000000000000524E4700000000000000002A
:103FB0000000000049324330000000000000000013
:103FC0000000004932433100000000000000000002
:103FD00000005350493000000000000000000000C5
:103FE00000535049310000000000000000000000B4
:103FF0005350493200000000000000000000004360
:10400000414E305F4F525F4D425F627566004341E3
:104010004E305F4275735F4F666600000043414E4D
:10402000305F4572726F72000000000043414E30F5
:104030005F54785F5761726E696E6743414E305FBF
:1040400052785F5761726E696E6743414E305F57B9
:10405000616B655F5570000000526573657276652F
:104060006435310000000000526573657276656446
:104070003532000000000043414E315F4F525F4D2A
:10408000425F6275660043414E315F4275735F4F18
:10409000666600000043414E315F4572726F7200E8
:1040A0000000000043414E315F54785F5761726EEB
:1040B000696E6743414E315F52785F5761726E6936
:1040C0006E6743414E315F57616B655F557000000D
:1040D0000052657365727665643539000000000032
:1040E00052657365727665643630000000000055D5
:1040F000415254305F52585F5458000000005541FF
:104100005254305F455252000000000000554152A9
:1041100054315F52585F54580000000055415254CA
:10412000315F4552520000000000005541525432A8
:104130005F52585F54580000000055415254325F9E
:1041400045525200000000000055415254335F5266
:10415000585F54580000000055415254335F455297
:104160005200000000000055415254345F52585F25
:1041700054580000000055415254345F45525200DB
:10418000000000000055415254355F52585F5458AA
:104190000000000055415254355F45525200000066
:1041A0000000004144433000000000000000000017
:1041B0000000414443310000000000000000000006
:1041C00000434D50300000000000000000000000DF
:1041D000434D50310000000000000000000000438B
:1041E0004D50320000000000000000000000465466
:1041F0004D30000000000000000000000046544D5B
:1042000031000000000000000000000046544D3264
:104210000000000000000000000000434D540000BA
:1042200000000000000000000000525443000000A5
:1042300000000000000000000052657365727665A2
:104240006438330000000000504954300000000082
:104250000000000000000050495431000000000040
:10426000000000000000504954320000000000002F
:10427000000000000050495433000000000000001E
:104280000000000050444230000000000000000028
:104290000000005553423000000000000000000004
:1042A0000000555342444344000000000000000059
:1042B00000454E45545F313538385F54696D65723D
:1042C000454E45545F5472616E736D6974000045CC
:1042D0004E45545F52656365697665000000454E42
:1042E00045545F4572726F720000000000493253FE
:1042F000300000000000000000000000534448436C
:1043000000000000000000000000004441433000B5
:1043100000000000000000000000444143310000A4
:10432000000000000000000000545349300000006D
:1043300000000000000000004D43470000000000A6
:10434000000000000000004C5054696D65720000D0
:1043500000000000000052657365727665643130BC
:104360003200000000504F52544100000000000095
:1043700000000000504F52544200000000000000B6
:10438000000000504F5254430000000000000000A5
:104390000000504F52544400000000000000000094
:1043A00000504F5254450000000000000000000083
:1043B00052657365727665643130380000000052D2
:1043C00065736572766564313039000000005265AE
:1043D0007365727665643131300000000052657398
:1043E0006572766564313131000000005265736595
:1043F0007276656431313200000000526573657277
:104400007665643131330000000052657365727661
:104410006564313134000000005265736572766561
:104420006431313500000000526573657276656451
:104430003131360000000052657365727665643173
:104440003137000000005265736572766564313162
:104450003800000000526573657276656431313949
:1044600000000000008003400090034000800B40EB
:1044700000F00F4040F00F4080F00F40C0F00F40C0
:1044800000F10F400060064000700640F0000A1D79
:104490003000180032001801600018186400181A63
:1044A0006E00181F780013187D00131A8200131C69
:1044B0008C000E1296000E15A0000E18AA000E1BFE
:1044C000B4000E1EC8000C1CE1000B1EFA000A1FEF
:1044D000000109080090044000A0044000B004401E
:1044E00000C0044000D0044000A0064000B00640D8
:1044F00000C0064000D0064000A00E4000B00E40B4
:1045000000000000CA54413C1283403D39B4C83D0C
:1045100045D8F03D65AA203E70CEC83E00000000A0
:10452000CDCC4C3D2E90A03D091B5E3EE336BA3EFD
:10453000F9021550000028410000F04000008040C2
:1045400000008040CDCC0C40CDCC0C40CDCCCC3F3D
:10455000CDCCCC3F0000803F0000803FCDCC4C3F15
:104560000000000000000000F90215500000284182
:104570000000F0400000404000004040CDCC0C4026
:10458000CDCC0C40CDCCCC3FCDCCCC3F0000803F3F
:104590000000803FCDCC4C3F000000000000000038
:1045A000F9021550000028410000D04000004040B2
:1045B00000004040CDCC0C40CDCC0C40CDCCCC3F0D
:1045C000CDCCCC3F0000803F0000803FCDCC4C3FA5
:1045D0000000000000000000000020410000C03F7B
:1045E0000000C03F9A99993F9A99993F0000803FF7
:1045F0000000803F0000003F0000003F9A99993E74
:104600009A99993ECDCCCC3D0000000000000000FE
:104610003435363752606268696A00000000204015
:104620006F12833A3333B33F000020410300000090
:1046300002040101800D0014D00D0014800D00143F
:10464000800D0014800D0014350900141C0900149D
:10465000000000000000000000000000000000005A
:10466000000000000000000000000000000000004A
:1046700010F00701DFF8CC0600684FF6FF0210408B
:10468000DFF8C42652EA01210843DFF8B8160860B3
:104690007047DFF8B0060068C0F30220704740B2F0
:1046A0004109DFF8A826012310F01F0013FA00F0DB
:1046B00042F82100704740B2002809D540B210F0FE
:1046C0000F00DFF88C268018090100F8041C04E0B4
:1046D00040B2DFF8802609018154704710B410F011
:1046E0000700D0F10703052B01D3042301E0D0F12B
:1046F0000703041D072C01D2002000E0C01E012486
:1047000014FA03F35B1E19408140012313FA00F0F1
:10471000401E1040084310BC704780B572B6FDF7CC
:10472000A7FA00F001F8FEE710B54FF47A7344F6EB
:10473000206204210020FEF774FC4FF47A7344F6E3
:10474000206205210020FEF76CFC4FF47A7344F6DA
:10475000206206210020FEF764FC4FF47A7344F6D1
:10476000206207210020FEF75CFC0120FEF770FDAF
:104770000220FEF76DFDDFF8E015012000F032FBAE
:1047800013212020FEF74AFE13212120FEF746FECA
:1047900000F04AFD00F0A6FD00F0F0FDFF2000F063
:1047A00064FE052000F0A9FA002000F05EFE06205D
:1047B000FFF714F95FF4E1310420FEF7F9FF05205B
:1047C000FFF756FFFFF765FF00220021FFF786FF86
:1047D00001005820FFF76FFFFFF75BFF0122012167
:1047E000FFF77CFF01003A20FFF765FFFFF751FF5D
:1047F00002220221FFF772FF01004420FFF75BFF56
:104800000FF2ED01542000F02AFF0FF2F1314A209F
:1048100000F025FF0FF2FD41682000F020FFDFF8D7
:104820003C152320FEF7D8FD4FF481712120FEF7BF
:10483000D3FD4FF481711D20FEF7CEFD4FF4817141
:104840001B20FEF7C9FD4FF481711A20FEF7C4FD4D
:1048500040F203111A20FEF7BFFD002200211D20A7
:10486000FFF7D4F9002200211B20FFF7CFF9002227
:1048700000211A20FFF7CAF9002200212120FFF7AA
:10488000C5F9002201214820FFF7C0F92A2000F0D5
:10489000FDFE2B2000F0FAFE2C2000F0F7FE2D206C
:1048A00000F0F4FE2E2000F0F1FEDFF8B404006802
:1048B000DFF8B014FDF772FF0400DFF8AC04006805
:1048C000FEF756F801002000FDF768FF01F01AF826
:1048D00001000020FEF7D6FE4420FFF7E0FE58203E
:1048E000FFF7DDFE3A20FFF7DAFE62B610BD0000EA
:1048F00080B5DFF87804006850F00100DFF86C1430
:10490000086000F062F901F00FF8DFF86404007845
:1049100000280BD1012202212A2000F0BDFFDFF880
:1049200050040078401CDFF84814087000F08DF83F
:1049300000F02FF9DFF83C040168DFF83C04006860
:10494000FDF7B6F90123DFF83404026800210020E6
:1049500000F030FE0123DFF8280402680121002066
:1049600000F028FE0123DFF81C0402680221002069
:1049700000F020FE0123DFF810040268032100206C
:1049800000F018FE0123DFF804040268042100206F
:1049900000F010FE0123DFF8F8230521002000F0CD
:1049A00082FD0123DFF8EC03B0F900200521192076
:1049B00000F000FE0123DFF8E0230621002000F0D4
:1049C00072FD0123DFF8D403B0F90020062119207D
:1049D00000F0F0FDDFF8C8030168DFF8C803FDF759
:1049E000DDFEFEF775FADFF8C0130880DFF88803F4
:1049F0000168DFF8B003FDF7D1FEFEF769FADFF8D2
:104A0000A8134880DFF86C030168DFF89803FDF70E
:104A1000C5FEFEF75DFADFF890138880DFF88C039F
:104A20000168DFF88003FDF7B9FEFEF751FADFF801
:104A30007813C880DFF8700301F0B8F9DFF82C03B1
:104A40000068012800D1FEE701BD10B584B000A8C0
:104A50000021002200230EC00C3800240020002179
:104A60000C0008E02921272000F00EFCE4B200A988
:104A700021F81400641CE4B2062CF3D3062024E0D1
:104A8000E4B200A911EB4401B1F90210E4B200AAAA
:104A900032F91420914211DAE4B200A931F914106C
:104AA000E4B200AA12EB44025288E4B200AB23F84D
:104AB0001420E4B200AA12EB44025180641CE4B258
:104AC000C0B2411E8C42DBDB401EC0B2022801D3C3
:104AD0000024F4E7BDF90600BDF9081001FA80F0E2
:104AE000022190FBF1F0DFF8C812088000A8002135
:104AF000002200230EC00C38002408E0052101200C
:104B000000F066FBE4B200A921F81400641CE4B2D2
:104B1000062CF3D3052024E0E4B200A911EB4401F4
:104B2000B1F90210E4B200AA32F91420914211DA6C
:104B3000E4B200A931F91410E4B200AA12EB440265
:104B40005288E4B200AB23F81420E4B200AA12EBBE
:104B500044025180641CE4B2C0B2411E8C42DBDBD3
:104B6000401EC0B2022801D30024F4E7BDF90600BC
:104B7000BDF9061001FA80F0022190FBF1F08D4999
:104B800008808C48B0F90000FDF7F2FE8449086007
:104B90001FBD80B58648B0F900008749B1F9001003
:104BA000401AFDF7E5FE734908607D4801688348B7
:104BB000FDF7F8FF7A4908606E4801687848006898
:104BC00001F044F96C49086001BD80B50120FEF791
:104BD000C2FB704908806F48B0F9000040426D493F
:104BE00008800220FEF7B7FB6C4908800120FEF721
:104BF000C6FB0220FEF7C3FB01BD000080B5704874
:104C0000006830F080006E4908605948007801283B
:104C100007D071D3032832D01AD305285DD045D3ED
:104C20006AE0564867490968016067480168534867
:104C3000006801F04DF964490860012202212B202F
:104C400000F02AFE4A480078401C4949087053E0A9
:104C50004D485C49096801605C4801684A48006841
:104C600001F036F959490860012202212C2000F098
:104C700013FE3F480078401C3D4908703CE0434823
:104C8000504909680160524801684048006801F0D5
:104C90001FF94F490860012202212D2000F0FCFD80
:104CA00033480078401C3249087025E035484549B2
:104CB00009680160474801683248006801F008F956
:104CC00044490860012202212E2000F0E5FD284819
:104CD0000078401C264908700EE0294839490968C7
:104CE00001603D4801682648006801F0F1F83A4942
:104CF00008601F480021017001BD05E0491C41F218
:104D000088329142FADB401E012801DB0021F6E7E0
:104D10007047000080B50020032108002F49096872
:104D20000122824011420CD0012111FA00F02B49DE
:104D300008601A20FEF7DDFF012802D12848002173
:104D4000016001BD0CED00E00000FA0500E100E0AB
:104D500018ED00E000E400E0804F120002010900BD
:104D60000000001400007A447C0D00140C71034014
:104D7000E40D0014400D0014480D00144C0D0014F7
:104D8000500D0014540D0014580D00145C0D001447
:104D9000D0720000D20D0014D8720000D40D00149F
:104DA000440D00140000A040000B0014EC0A001495
:104DB000D60D0014D80D0014F4080014000043436D
:104DC00000B00B4010B00B40600D00146C0D0014CF
:104DD000700D0014680D0014640D0014A0A00440B0
:104DE000F00800142DE9F043A1B004000D00E4B276
:104DF000002C12D1DFF8A803006850F04000DFF863
:104E0000A013086040F223216820FEF7E5FA40F283
:104E100023216920FEF7E0FA11E0DFF8840300683F
:104E200050F08000DFF87813086040F223214A2018
:104E3000FEF7D2FA40F223214B20FEF7CDFA00A86C
:104E4000DFF860138022FCF757FAD74800684CF26D
:104E50005131884201DA002607E0D3480068D3497F
:104E6000884201DA012600E00226CF4800684FF4AC
:104E70007A714843F6B2711C6943B0FBF1F75FF0F9
:104E800040084FF6FF7906E080B21FFA89F94845DD
:104E900001D2454681465FFA88F8B8F1000F0ED07E
:104EA000B8F10108BFB25FFA88F800A830F818001E
:104EB000381A01F065F880B20028E5D14546E4B221
:104EC000BB4850F8240015F03F0151EA86114170AB
:104ED000E4B2B74850F8240080218170B2480068DD
:104EE0004FF47A714843F6B2711CEDB200AA32F861
:104EF0001520514390FBF1F021B0BDE8F083000094
:104F000081B06420ADF8000000E000BFBDF80000F3
:104F1000411EADF8001080B20028F6D101B07047F4
:104F200000E000BF0100481EC9B20029F9D1704756
:104F300070B504000D001600280603D5DF219D483A
:104F4000FEF7B7FAE4B29A4850F82400807850F09F
:104F50003000E4B2964951F8241088700120FFF720
:104F6000DFFFE4B2924850F8240069000171E4B216
:104F70008F4850F82400C0788007F8D5E4B28C48F8
:104F800050F82400C07850F00200E4B2884951F88B
:104F90002410C8700120FFF7C3FFE4B2844850F822
:104FA00024000671E4B2824850F82400C0788007DB
:104FB000F8D5E4B27E4850F82400C07850F00200E2
:104FC000E4B27B4951F82410C8700120FFF7A8FF14
:104FD000E4B2774850F82400807850F00400E4B23E
:104FE000734951F8241088700120FFF799FFE4B24B
:104FF0006F4850F82400690051F001010171E4B2DA
:105000006B4850F82400C0788007F8D5E4B26848AF
:1050100050F82400C07850F00200E4B2644951F81E
:105020002410C8700120FFF77BFFE4B2604850F8FD
:105030002400807810F0EF00E4B25D4951F82410AC
:105040008870E4B25A4850F82400807850F0080084
:10505000E4B2574951F824108870E4B2544850F82B
:1050600024000579E4B2524850F82400C078800743
:10507000F8D5E4B24E4850F82400C07850F0020051
:10508000E4B24B4951F82410C870E4B2484850F8D3
:105090002400807810F0CF00E4B2454951F8241084
:1050A0008870E4B2424850F824000579FFF728FFE1
:1050B0002800C0B270BDF8B504000D0016001F0036
:1050C000E4B23B4850F82400807850F03000E4B25D
:1050D000374951F8241088700120FFF721FFE4B20E
:1050E000334850F8240069000171E4B2304850F8A8
:1050F0002400C0788007F8D5E4B22D4850F8240089
:10510000C07850F00200E4B2294951F82410C87068
:105110000120FFF705FFE4B2254850F8240006718E
:10512000E4B2234850F82400C0788007F8D5E4B2F0
:105130001F4850F82400C07850F00200E4B21C4927
:1051400051F82410C8700120FFF7EAFEE4B21848B5
:1051500050F824000771E4B2154850F82400C078D4
:105160008007F8D5E4B2124850F82400C07850F017
:105170000200E4B20E4951F82410C8700120FFF774
:10518000CFFEE4B20A4850F82400807810F0CF0037
:10519000E4B2074951F824108870FFF7B1FEF1BD61
:1051A00034800440806E00007C0D0014A186010054
:1051B0004C07001458700000401E010089B20029FD
:1051C00005D00021C9B26429F6D2491CFAE770471C
:1051D00070B504000D0000200026EDB2072D01D3AC
:1051E000002020E0C0B220420BD100221D2101206E
:1051F000FFF79EFE761C310040F2F51289B2914213
:10520000F0D32A00D2B21D210120FFF791FE040045
:105210006A1CD2B21D210120FFF78AFE240204433A
:1052200024B2A01000B270BD80B50D221D21012056
:10523000FFF77EFE1A28F8D10A20FFF7BDFF0023F2
:105240000B221D210120FFF736FF0A20FFF7B4FFD4
:1052500002232B221D210120FFF72DFF0A20FFF73B
:10526000ABFF01232A221D210120FFF724FF01BDEE
:10527000401E010089B2002905D00021C9B264296D
:10528000F6D2491CFAE77047F8B504000D0000207B
:10529000002600270021EDB22E2D01D3002020E0B2
:1052A000C0B220420BD1272269210120FFF740FE26
:1052B000761C310040F2F51289B29142F0D32A00F7
:1052C000D2B269210120FFF733FE07006A1ED2B275
:1052D00069210120FFF72CFE01003F020F43380037
:1052E00000B2F2BD80B50F2269210120FFF720FE38
:1052F000D328F8D10A20FFF7BBFFFF232022692122
:105300000120FFF7D8FE0A20FFF7B2FF0023212279
:1053100069210120FFF7CFFE0A20FFF7A9FF08232C
:10532000222269210120FFF7C6FE0A20FFF7A0FF15
:105330003023232269210120FFF7BDFE0A20FFF759
:1053400097FF0023242269210120FFF7B4FE0A20E1
:10535000FFF78EFF01BD000080B50300DBB2002225
:105360003C210120FFF7A7FE01BD80B50300DBB2A1
:1053700040223C210120FFF79EFE01BD80B50020A8
:10538000401C4FF47A71884204DA0A21491E01292F
:10539000F6DBFBE7AE20FFF7DFFF2020FFF7DCFFA7
:1053A0001020FFF7D9FFB020FFF7D6FFC820FFF786
:1053B000D3FF0020FFF7D0FF1020FFF7CDFF4020E4
:1053C000FFF7CAFF8120FFF7C7FFFF20FFF7C4FFE9
:1053D000A120FFF7C1FFA620FFF7BEFFA820FFF71F
:1053E000BBFF3F20FFF7B8FFA420FFF7B5FFD32096
:1053F000FFF7B2FF0020FFF7AFFFD520FFF7ACFFAC
:10540000F020FFF7A9FFD920FFF7A6FF2220FFF722
:10541000A3FFDA20FFF7A0FF1220FFF79DFFDB209C
:10542000FFF79AFF2020FFF797FF8D20FFF794FFEB
:105430001420FFF791FFAF20FFF78EFF01BD10B5DD
:105440000400B1F15000C0B2FFF786FFE4B22009BA
:1054500050F01000C0B2FFF77FFF14F00F0050F0C3
:105460000100C0B2FFF778FF10BD70B50400002541
:1054700008E02000C0B2FFF778FF761CF6B2802E5D
:10548000F7D36D1CEDB2082D0CD2B5F15000C0B2AF
:10549000FFF762FF0020FFF75FFF1020FFF75CFFC0
:1054A0000026EBE770BD2DE9F84304000D0016005F
:1054B00000275FF000085FF00009DBB2012B17D076
:1054C000022B43D074E05FFA88F8FFB206205849F7
:1054D00000FB071018F80000FFF747FF18F101085C
:1054E0005FFA88F8B8F1060FEDD3A41D19F1010990
:1054F0005FFA89F919F80600002813D05FFA89F9D4
:1055000019F80600B0F12007E4B27F2C01D3002483
:105510006D1C2900C9B22000C0B2FFF790FF5FF0F8
:105520000008DDE744E0FFB2380150FA88F0414955
:105530004018007AFFF719FF18F101085FFA88F8A0
:10554000B8F1080FEFD3083419F101095FFA89F9AE
:1055500019F8060000282BD05FFA89F919F806001F
:10556000B0F12007E4B2792C01D300246D1C29008E
:10557000C9B22000C0B2FFF762FF5FF0000809E087
:10558000FFB2380150FA88F02A49405CFFF7EDFE7F
:1055900018F101085FFA88F8B8F1080FF0D3691C18
:1055A000C9B22000C0B2FFF74AFF5FF00008C5E7AC
:1055B000BDE8F183F0B583B000AC1F4DC0CDC0C4D1
:1055C000083D083C00240025002A05D52D258DF82E
:1055D0000050641C524201250A2692FBF6F706FB96
:1055E0001726303600AFE6550A2692FBF6F2641C09
:1055F000012AF1DA00228DF80720641E0022EDB2A4
:10560000012D0BD1012209E000AD555D00AE00AFC8
:10561000E75D975500AEA555521C641E9442F3DA1F
:10562000DBB200AAC9B2C0B2FFF73DFFF7BD000070
:1056300064690000885F0000B072000010B50400CB
:105640004FF4007094FBF0F101FB1041002903D0EE
:105650001E210B48FDF72DFF0A48046010BD38B528
:1056600004000D00074800680749884203D0302134
:105670000348FDF71EFFE4B2034840F8245031BD53
:10568000E070000008ED00E00000FF1F10B504000E
:10569000E4B26009C0B2002802D0012811D021E094
:1056A0009348006850F00060914908609148006894
:1056B00030F090008F4908608E488E49096801607B
:1056C00014E08D48006850F000608B4908608948FC
:1056D000006830F4104087490860864885490968A9
:1056E000016003E032218548FDF7E3FEE4B2002CBF
:1056F00000F08980012C00F08680032C00F083806C
:10570000082C4ED0092C51D00A2C54D00B2C57D039
:105710000C2C5AD00D2C5DD00E2C60D00F2C63D0E9
:10572000102C70D0112C64D0122C67D0132C6AD09E
:10573000142C68D01A2C66D01D2C64D01E2C62D07C
:10574000202C61D0212C5FD0232C5DD0242C5CD068
:10575000252C5FD0262C62D0272C65D0282C68D031
:10576000292C6BD02A2C6ED02B2C71D02C2C74D0E1
:105770002D2C77D02E2C7AD02F2C7DD0302C00F0F1
:105780008580312C7DD0322C00F08080332C7DD070
:10579000342C7BD03A2C79D03D2C77D03E2C75D050
:1057A00075E000212020FDF717FE74E00021212084
:1057B000FDF712FE6FE000210720FDF70DFE6AE005
:1057C00000210820FDF708FE65E000212220FDF7FA
:1057D00003FE60E000212320FDF7FEFD5BE00021D9
:1057E0004020FDF7F9FD56E000214120FDF7F4FDD2
:1057F00051E000219820FDF7EFFD4CE000219920B9
:10580000FDF7EAFD47E046E045E000218020FDF796
:10581000E3FD40E000218120FDF7DEFD3BE00021BB
:105820008220FDF7D9FD36E000218320FDF7D4FD6D
:1058300031E000212020FDF7CFFD2CE000212120C8
:10584000FDF7CAFD27E000212420FDF7C5FD22E079
:1058500000212520FDF7C0FD1DE000212620FDF7D9
:10586000BBFD18E000212720FDF7B6FD13E0002165
:105870002A20FDF7B1FD0EE000212B20FDF7ACFD45
:1058800009E000211120FDF7A7FD04E003E09921C4
:105890001A48FDF70EFE10BD10B4C0B2430910F057
:1058A0001F00DBB2164C54F82340C9B2890011F036
:1058B0000C0151F05001A160DBB2114951F82310E5
:1058C0000424CC60DBB20E4951F82310D2B212F09E
:1058D000030252F00C024A62DBB2094951F823106C
:1058E000C0B210F01F0050F04000086010BC7047BC
:1058F0003C80044018800440308004408C6F0000DD
:105900001C00001440000DD2010E7F390AD4D1F1E1
:105910001F0104D4C00140F00040C84070477FF030
:10592000000070470020704710B5DFF84C04007885
:1059300000F011F8082401E0FEF703F92000441EEE
:10594000C0B20028F8D1FEF7F4F8C0B2012801D1A6
:1059500000F0ECF810BD80B5C0B2002808D00228D5
:105960004CD006D3042800F0D980C0F0D680D5E012
:10597000D4E00123DFF8042400210120FFF793FD88
:105980000223DFF8FC2302210D20FFF78CFD022308
:1059900063A206210220FFF786FD022361A20621F1
:1059A0006720FFF780FD0223DFF8D8230421302091
:1059B000FFF779FD002005E0491C4FF47A7291420F
:1059C000FADB401C42F21071884201DA6421F4E7EC
:1059D0000223DFF8B42304213020FFF764FD002008
:1059E00005E0491C4FF47A729142FADB401C4FF4F7
:1059F0007A71884201DA6421F4E78FE00123DFF84D
:105A00008C2305210120FFF74EFD0223DFF88023C0
:105A100006210120FFF747FD022343A206215F2054
:105A2000FFF741FDDFF86C030078401E01281EDB04
:105A30000123DFF8600300780C21DFF85C2301FB11
:105A40000020B0F10C0200210220FFF72CFD012301
:105A5000DFF8400300780C21DFF83C2301FB002035
:105A600050F8040C026800213020FFF7A3FDDFF896
:105A700024030078002824D4DFF818030078DFF826
:105A80001C13097888421CD20223DFF8080300782F
:105A90000C21DFF8042301FB002201210220FFF783
:105AA00002FD0223DFF8EC0200780C21DFF8E82287
:105AB00001FB00208068026801213020FFF77AFD99
:105AC00003E0DFF8D00200210170DFF8C80200789F
:105AD000401CDFF8C812097888421DDA0123DFF87C
:105AE000B40200780C21DFF8B02201FB002010F195
:105AF0000C0203210220FFF7D6FC0123DFF89402F9
:105B000000780C21DFF8902201FB00204069026838
:105B100003213020FFF74EFD00E0FFE701BD00004C
:105B200046756E00457363007C2D3E0080B5FDF721
:105B3000D3FF00909DF80000002838D002286ED0D6
:105B4000C0F09680042800F0E08003D3052800F020
:105B5000B88010E19DF80100002803D09DF80100F5
:105B6000022823D1DFF810020078002806D002288E
:105B700011D00FD3042819D017D317E0DFF8200273
:105B80000078012805D3DFF818020078401E844908
:105B900008700BE00AE07F480078012804D37D48B4
:105BA0000078401E7B49087000E0FFE7E3E09DF8C5
:105BB0000100002803D09DF8010002282ED16E4874
:105BC0000078002806D0022816D014D3042825D047
:105BD00023D323E072480078401C71490870704854
:105BE000007870490978884204D36E480078401ED6
:105BF0006B49087012E011E066480078401C654966
:105C000008706448007865490978884204D363487D
:105C10000078401E5F49087000E0FFE7ABE09DF8A8
:105C20000100002803D09DF8010002281FD152482E
:105C30000078002806D0022806D004D3042816D005
:105C400014D314E013E012E0524800780C21524AB9
:105C500001FB002080680068401C4E4909780C2236
:105C60004D4B02FB01318968086000E0FFE782E0EC
:105C70009DF80100002803D09DF8010002281FD1E3
:105C80003D480078002806D0022806D004D3042816
:105C900016D014D314E013E012E03E4800780C2133
:105CA0003D4A01FB002080680068401E39490978A0
:105CB0000C22394B02FB01318968086000E0FFE7E4
:105CC00059E09DF8010000281ED12B4800780028DB
:105CD00006D0022816D00CD3042815D013D313E015
:105CE0000020FFF7C2FB24480078401C22490870BE
:105CF0000AE00020FFF7B9FB1F480078401C1E494E
:105D0000087001E000E0FFE735E09DF801000028A1
:105D100031D119480078012807D30020FFF7A5FBEF
:105D200015480078401E1449087013480078002870
:105D300006D002281DD01BD304281CD01AD31AE089
:105D40000223194A02210520FFF7ADFB002005E0E0
:105D5000491C4FF47A729142FADB401C42F21071F6
:105D6000884201DA6421F4E70020FFF77EFB02E0BD
:105D700001E000E0FFE701BDDF0D0014DC71000071
:105D800084720000B8720000C0720000F47100005C
:105D9000C8720000DD0D0014080B0014DB0D0014A8
:105DA000DE0D0014DC0D00149472000010B584B0F8
:105DB00000A90022002300241CC10C39002100246A
:105DC00010E0E4B230F81410E4B200AA02F81410A3
:105DD000E4B230F914100912E4B200AA12EB440242
:105DE0005170641CE4B2042CEBD34FF6FF71002415
:105DF00000E0641CE4B2082C14D2E4B200A8205CD9
:105E00004140002002E089B24908401CC0B2082885
:105E1000EFD2CA07F7D589B2490881F4204191F041
:105E20000101F2E708008DF8080089B2080A8DF830
:105E30000900002406E0E4B200A8215C0420FDF77C
:105E4000B3FD641CE4B20A2CF5D31FBD10B50400E9
:105E50003F48FCF7A3FC3F490968FCF79FFC3E491B
:105E60000968FCF79FFE3C4908603C4801683C48D3
:105E70000068FCF797FE39490860384801683948DE
:105E80000068FCF78FFE010034480068FCF7FAFD5B
